{
  "contractName": "TweetFactory",
  "abi": [
    {
      "anonymous": false,
      "inputs": [
        {
          "indexed": false,
          "internalType": "uint256",
          "name": "tweetId",
          "type": "uint256"
        },
        {
          "indexed": false,
          "internalType": "string",
          "name": "message",
          "type": "string"
        },
        {
          "indexed": false,
          "internalType": "string",
          "name": "author",
          "type": "string"
        }
      ],
      "name": "TweetAdded",
      "type": "event"
    },
    {
      "anonymous": false,
      "inputs": [
        {
          "indexed": false,
          "internalType": "uint256",
          "name": "oldTweetId",
          "type": "uint256"
        }
      ],
      "name": "TweetDeleted",
      "type": "event"
    },
    {
      "anonymous": false,
      "inputs": [
        {
          "indexed": false,
          "internalType": "uint256",
          "name": "tweetId",
          "type": "uint256"
        },
        {
          "indexed": false,
          "internalType": "string",
          "name": "message",
          "type": "string"
        },
        {
          "indexed": false,
          "internalType": "string",
          "name": "author",
          "type": "string"
        }
      ],
      "name": "TweetUpdated",
      "type": "event"
    },
    {
      "inputs": [
        {
          "internalType": "uint256",
          "name": "",
          "type": "uint256"
        }
      ],
      "name": "tweets",
      "outputs": [
        {
          "internalType": "uint256",
          "name": "id",
          "type": "uint256"
        },
        {
          "internalType": "string",
          "name": "message",
          "type": "string"
        },
        {
          "internalType": "string",
          "name": "author",
          "type": "string"
        }
      ],
      "stateMutability": "view",
      "type": "function"
    },
    {
      "inputs": [
        {
          "internalType": "string",
          "name": "a",
          "type": "string"
        },
        {
          "internalType": "string",
          "name": "b",
          "type": "string"
        }
      ],
      "name": "compareStrings",
      "outputs": [
        {
          "internalType": "bool",
          "name": "",
          "type": "bool"
        }
      ],
      "stateMutability": "pure",
      "type": "function"
    },
    {
      "inputs": [
        {
          "internalType": "uint256",
          "name": "id",
          "type": "uint256"
        }
      ],
      "name": "requireValidTweetId",
      "outputs": [],
      "stateMutability": "view",
      "type": "function"
    },
    {
      "inputs": [
        {
          "internalType": "string",
          "name": "_message",
          "type": "string"
        },
        {
          "internalType": "string",
          "name": "_author",
          "type": "string"
        }
      ],
      "name": "createTweet",
      "outputs": [],
      "stateMutability": "nonpayable",
      "type": "function"
    },
    {
      "inputs": [
        {
          "internalType": "uint256",
          "name": "id",
          "type": "uint256"
        }
      ],
      "name": "getTweet",
      "outputs": [
        {
          "components": [
            {
              "internalType": "uint256",
              "name": "id",
              "type": "uint256"
            },
            {
              "internalType": "string",
              "name": "message",
              "type": "string"
            },
            {
              "internalType": "string",
              "name": "author",
              "type": "string"
            }
          ],
          "internalType": "struct TweetFactory.Tweet",
          "name": "",
          "type": "tuple"
        }
      ],
      "stateMutability": "view",
      "type": "function"
    },
    {
      "inputs": [],
      "name": "getTweets",
      "outputs": [
        {
          "components": [
            {
              "internalType": "uint256",
              "name": "id",
              "type": "uint256"
            },
            {
              "internalType": "string",
              "name": "message",
              "type": "string"
            },
            {
              "internalType": "string",
              "name": "author",
              "type": "string"
            }
          ],
          "internalType": "struct TweetFactory.Tweet[]",
          "name": "",
          "type": "tuple[]"
        }
      ],
      "stateMutability": "view",
      "type": "function"
    },
    {
      "inputs": [
        {
          "internalType": "uint256",
          "name": "id",
          "type": "uint256"
        },
        {
          "internalType": "string",
          "name": "_author",
          "type": "string"
        }
      ],
      "name": "deleteTweet",
      "outputs": [],
      "stateMutability": "nonpayable",
      "type": "function"
    },
    {
      "inputs": [
        {
          "internalType": "uint256",
          "name": "id",
          "type": "uint256"
        },
        {
          "internalType": "string",
          "name": "_message",
          "type": "string"
        },
        {
          "internalType": "string",
          "name": "_author",
          "type": "string"
        }
      ],
      "name": "updateTweet",
      "outputs": [],
      "stateMutability": "nonpayable",
      "type": "function"
    }
  ],
  "bytecode": "0x608060405260018055600060025534801561001957600080fd5b50611819806100296000396000f3fe608060405234801561001057600080fd5b50600436106100885760003560e01c8063bed34bba1161005b578063bed34bba146100fd578063c3ad5ecb1461012d578063e8d857b01461015d578063fc86741f1461018f57610088565b80630b0c061a1461008d578063528dd767146100a957806363f33441146100c55780638cd14d30146100e1575b600080fd5b6100a760048036038101906100a29190610f0a565b6101ad565b005b6100c360048036038101906100be9190610f87565b6101f4565b005b6100df60048036038101906100da9190610f33565b610454565b005b6100fb60048036038101906100f69190610e9e565b61068a565b005b61011760048036038101906101129190610e9e565b610771565b60405161012491906112d2565b60405180910390f35b61014760048036038101906101429190610f0a565b6107ca565b604051610154919061136d565b60405180910390f35b61017760048036038101906101729190610f0a565b61097a565b604051610186939291906113aa565b60405180910390f35b610197610ab4565b6040516101a491906112b0565b60405180910390f35b80600154116101f1576040517f08c379a00000000000000000000000000000000000000000000000000000000081526004016101e89061132d565b60405180910390fd5b50565b6101fd836101ad565b6000806000858152602001908152602001600020604051806060016040529081600082015481526020016001820180546102369061156c565b80601f01602080910402602001604051908101604052809291908181526020018280546102629061156c565b80156102af5780601f10610284576101008083540402835291602001916102af565b820191906000526020600020905b81548152906001019060200180831161029257829003601f168201915b505050505081526020016002820180546102c89061156c565b80601f01602080910402602001604051908101604052809291908181526020018280546102f49061156c565b80156103415780601f1061031657610100808354040283529160200191610341565b820191906000526020600020905b81548152906001019060200180831161032457829003601f168201915b505050505081525050905061035a816040015183610771565b610399576040517f08c379a00000000000000000000000000000000000000000000000000000000081526004016103909061134d565b60405180910390fd5b60006040518060600160405280868152602001858152602001848152509050806000808781526020019081526020016000206000820151816000015560208201518160010190805190602001906103f1929190610d1d565b50604082015181600201908051906020019061040e929190610d1d565b509050507f6b49ad39a2eb3f76210be1339e47aa8be331d98bf8d6785d3098e5bf45e0dfd2858585604051610445939291906113aa565b60405180910390a15050505050565b61045d826101ad565b6000806000848152602001908152602001600020604051806060016040529081600082015481526020016001820180546104969061156c565b80601f01602080910402602001604051908101604052809291908181526020018280546104c29061156c565b801561050f5780601f106104e45761010080835404028352916020019161050f565b820191906000526020600020905b8154815290600101906020018083116104f257829003601f168201915b505050505081526020016002820180546105289061156c565b80601f01602080910402602001604051908101604052809291908181526020018280546105549061156c565b80156105a15780601f10610576576101008083540402835291602001916105a1565b820191906000526020600020905b81548152906001019060200180831161058457829003601f168201915b50505050508152505090506105ba816040015183610771565b6105f9576040517f08c379a00000000000000000000000000000000000000000000000000000000081526004016105f09061130d565b60405180910390fd5b6000808481526020019081526020016000206000808201600090556001820160006106249190610da3565b6002820160006106349190610da3565b50506002600081548092919061064990611542565b91905055507fcff984d3d6983751ef01f1bad6665f0a9ab887ed70e453a3e9d01009d82c9fd18360405161067d919061138f565b60405180910390a1505050565b60006001600081548092919061069f906115cf565b9190505590506040518060600160405280828152602001848152602001838152506000808381526020019081526020016000206000820151816000015560208201518160010190805190602001906106f8929190610d1d565b506040820151816002019080519060200190610715929190610d1d565b509050506002600081548092919061072c906115cf565b91905055507f5e344bca248916431466b4777e600d3a9bbebc21745f720d370374225168ad9e818484604051610764939291906113aa565b60405180910390a1505050565b6000816040516020016107849190611299565b60405160208183030381529060405280519060200120836040516020016107ab9190611299565b6040516020818303038152906040528051906020012014905092915050565b6107d2610de3565b6107db826101ad565b6000806000848152602001908152602001600020604051806060016040529081600082015481526020016001820180546108149061156c565b80601f01602080910402602001604051908101604052809291908181526020018280546108409061156c565b801561088d5780601f106108625761010080835404028352916020019161088d565b820191906000526020600020905b81548152906001019060200180831161087057829003601f168201915b505050505081526020016002820180546108a69061156c565b80601f01602080910402602001604051908101604052809291908181526020018280546108d29061156c565b801561091f5780601f106108f45761010080835404028352916020019161091f565b820191906000526020600020905b81548152906001019060200180831161090257829003601f168201915b50505050508152505090506000816000015111610971576040517f08c379a0000000000000000000000000000000000000000000000000000000008152600401610968906112ed565b60405180910390fd5b80915050919050565b60006020528060005260406000206000915090508060000154908060010180546109a39061156c565b80601f01602080910402602001604051908101604052809291908181526020018280546109cf9061156c565b8015610a1c5780601f106109f157610100808354040283529160200191610a1c565b820191906000526020600020905b8154815290600101906020018083116109ff57829003601f168201915b505050505090806002018054610a319061156c565b80601f0160208091040260200160405190810160405280929190818152602001828054610a5d9061156c565b8015610aaa5780601f10610a7f57610100808354040283529160200191610aaa565b820191906000526020600020905b815481529060010190602001808311610a8d57829003601f168201915b5050505050905083565b6060600060025467ffffffffffffffff811115610afa577f4e487b7100000000000000000000000000000000000000000000000000000000600052604160045260246000fd5b604051908082528060200260200182016040528015610b3357816020015b610b20610de3565b815260200190600190039081610b185790505b50905060008060018054610b4791906114b6565b90505b6000811115610d1457600080600083815260200190815260200160002060405180606001604052908160008201548152602001600182018054610b8c9061156c565b80601f0160208091040260200160405190810160405280929190818152602001828054610bb89061156c565b8015610c055780601f10610bda57610100808354040283529160200191610c05565b820191906000526020600020905b815481529060010190602001808311610be857829003601f168201915b50505050508152602001600282018054610c1e9061156c565b80601f0160208091040260200160405190810160405280929190818152602001828054610c4a9061156c565b8015610c975780601f10610c6c57610100808354040283529160200191610c97565b820191906000526020600020905b815481529060010190602001808311610c7a57829003601f168201915b50505050508152505090506000816000015114610d005780848480610cbb906115cf565b955081518110610cf4577f4e487b7100000000000000000000000000000000000000000000000000000000600052603260045260246000fd5b60200260200101819052505b508080610d0c90611542565b915050610b4a565b50819250505090565b828054610d299061156c565b90600052602060002090601f016020900481019282610d4b5760008555610d92565b82601f10610d6457805160ff1916838001178555610d92565b82800160010185558215610d92579182015b82811115610d91578251825591602001919060010190610d76565b5b509050610d9f9190610e04565b5090565b508054610daf9061156c565b6000825580601f10610dc15750610de0565b601f016020900490600052602060002090810190610ddf9190610e04565b5b50565b60405180606001604052806000815260200160608152602001606081525090565b5b80821115610e1d576000816000905550600101610e05565b5090565b6000610e34610e2f84611414565b6113ef565b905082815260208101848484011115610e4c57600080fd5b610e57848285611500565b509392505050565b600082601f830112610e7057600080fd5b8135610e80848260208601610e21565b91505092915050565b600081359050610e98816117cc565b92915050565b60008060408385031215610eb157600080fd5b600083013567ffffffffffffffff811115610ecb57600080fd5b610ed785828601610e5f565b925050602083013567ffffffffffffffff811115610ef457600080fd5b610f0085828601610e5f565b9150509250929050565b600060208284031215610f1c57600080fd5b6000610f2a84828501610e89565b91505092915050565b60008060408385031215610f4657600080fd5b6000610f5485828601610e89565b925050602083013567ffffffffffffffff811115610f7157600080fd5b610f7d85828601610e5f565b9150509250929050565b600080600060608486031215610f9c57600080fd5b6000610faa86828701610e89565b935050602084013567ffffffffffffffff811115610fc757600080fd5b610fd386828701610e5f565b925050604084013567ffffffffffffffff811115610ff057600080fd5b610ffc86828701610e5f565b9150509250925092565b600061101283836111cd565b905092915050565b600061102582611455565b61102f8185611478565b93508360208202850161104185611445565b8060005b8581101561107d578484038952815161105e8582611006565b94506110698361146b565b925060208a01995050600181019050611045565b50829750879550505050505092915050565b611098816114ea565b82525050565b60006110a982611460565b6110b38185611489565b93506110c381856020860161150f565b6110cc816116a5565b840191505092915050565b60006110e282611460565b6110ec818561149a565b93506110fc81856020860161150f565b611105816116a5565b840191505092915050565b600061111b82611460565b61112581856114ab565b935061113581856020860161150f565b80840191505092915050565b600061114e600d8361149a565b9150611159826116b6565b602082019050919050565b6000611171604a8361149a565b915061117c826116df565b606082019050919050565b600061119460128361149a565b915061119f82611754565b602082019050919050565b60006111b760368361149a565b91506111c28261177d565b604082019050919050565b60006060830160008301516111e5600086018261127b565b50602083015184820360208601526111fd828261109e565b91505060408301518482036040860152611217828261109e565b9150508091505092915050565b600060608301600083015161123c600086018261127b565b5060208301518482036020860152611254828261109e565b9150506040830151848203604086015261126e828261109e565b9150508091505092915050565b611284816114f6565b82525050565b611293816114f6565b82525050565b60006112a58284611110565b915081905092915050565b600060208201905081810360008301526112ca818461101a565b905092915050565b60006020820190506112e7600083018461108f565b92915050565b6000602082019050818103600083015261130681611141565b9050919050565b6000602082019050818103600083015261132681611164565b9050919050565b6000602082019050818103600083015261134681611187565b9050919050565b60006020820190508181036000830152611366816111aa565b9050919050565b600060208201905081810360008301526113878184611224565b905092915050565b60006020820190506113a4600083018461128a565b92915050565b60006060820190506113bf600083018661128a565b81810360208301526113d181856110d7565b905081810360408301526113e581846110d7565b9050949350505050565b60006113f961140a565b9050611405828261159e565b919050565b6000604051905090565b600067ffffffffffffffff82111561142f5761142e611676565b5b611438826116a5565b9050602081019050919050565b6000819050602082019050919050565b600081519050919050565b600081519050919050565b6000602082019050919050565b600082825260208201905092915050565b600082825260208201905092915050565b600082825260208201905092915050565b600081905092915050565b60006114c1826114f6565b91506114cc836114f6565b9250828210156114df576114de611618565b5b828203905092915050565b60008115159050919050565b6000819050919050565b82818337600083830152505050565b60005b8381101561152d578082015181840152602081019050611512565b8381111561153c576000848401525b50505050565b600061154d826114f6565b9150600082141561156157611560611618565b5b600182039050919050565b6000600282049050600182168061158457607f821691505b6020821081141561159857611597611647565b5b50919050565b6115a7826116a5565b810181811067ffffffffffffffff821117156115c6576115c5611676565b5b80604052505050565b60006115da826114f6565b91507fffffffffffffffffffffffffffffffffffffffffffffffffffffffffffffffff82141561160d5761160c611618565b5b600182019050919050565b7f4e487b7100000000000000000000000000000000000000000000000000000000600052601160045260246000fd5b7f4e487b7100000000000000000000000000000000000000000000000000000000600052602260045260246000fd5b7f4e487b7100000000000000000000000000000000000000000000000000000000600052604160045260246000fd5b6000601f19601f8301169050919050565b7f54776565742044656c6574656400000000000000000000000000000000000000600082015250565b7f5072656d697373696f6e2064656e6965642e2e2120506c65617365206964656e60008201527f7469667920796f757273656c66206265666f726520616363657373696e67207460208201527f686973206f7074696f6e00000000000000000000000000000000000000000000604082015250565b7f5477656574657220496420696e76616c69640000000000000000000000000000600082015250565b7f547765657420757064617465207072656d697373696f6e2064696e656420626560008201527f636175736520796f7572206e6f742061206f776e657200000000000000000000602082015250565b6117d5816114f6565b81146117e057600080fd5b5056fea264697066735822122055675833d368526193eb312e05b84b10d0017280343ae601943a699c296e280664736f6c63430008040033",
  "immutableReferences": {},
  "source": "// SPDX-License-Identifier: MIT\npragma solidity >=0.8.0 <0.9.0;\npragma experimental ABIEncoderV2;\n\ncontract TweetFactory {\n    event TweetAdded(uint tweetId, string message, string author);\n    event TweetUpdated(uint tweetId, string message, string author);\n    event TweetDeleted(uint oldTweetId);\n\n    struct Tweet {\n        uint id;\n        string message;\n        string author;\n    }\n\n    mapping(uint => Tweet) public tweets;\n    uint nextTweetId = 1;\n    uint tweetCount = 0;\n\n    function compareStrings(string memory a, string memory b) public pure returns (bool) {\n        return (keccak256(abi.encodePacked((a))) == keccak256(abi.encodePacked((b))));\n    }\n\n    function requireValidTweetId(uint id) public view {\n        require(nextTweetId > id, \"Tweeter Id invalid\");\n    }\n\n    function createTweet(string memory _message, string memory _author) public {\n        uint id = nextTweetId++;\n        tweets[id] = Tweet(id, _message, _author);\n        tweetCount++;\n        emit TweetAdded(id, _message, _author);\n    }\n\n    function getTweet(uint id) public view returns (Tweet memory) {\n        requireValidTweetId(id);\n        Tweet memory retrievedTweet = tweets[id];\n        require(retrievedTweet.id > 0, \"Tweet Deleted\");\n        return retrievedTweet;\n    }\n\n\n    function getTweets() public view returns (Tweet[] memory) {\n        Tweet[] memory timeline = new Tweet[](tweetCount);\n        uint idx = 0;\n\n        for(uint i = nextTweetId - 1; i > 0; i--) {\n            Tweet memory curTweet = tweets[i];\n\n            // Means it's not deleted\n            if (curTweet.id != 0) {\n                timeline[idx++] = curTweet;\n            }\n        }\n\n        return timeline;\n    }\n\n    function deleteTweet(uint id, string memory _author) public {\n       requireValidTweetId(id);\n        Tweet memory retrievedTweet = tweets[id];\n        require(compareStrings(retrievedTweet.author, _author), \"Premission denied..! Please identify yourself before accessing this option\");\n        delete tweets[id];\n        tweetCount--;\n        emit TweetDeleted(id);\n    }\n\n    function updateTweet(uint id, string memory _message, string memory _author) public {\n        requireValidTweetId(id);\n        Tweet memory oldTweet = tweets[id];\n        require(compareStrings(oldTweet.author, _author), \"Tweet update premission dined because your not a owner\");\n        Tweet memory newTweet = Tweet(id, _message, _author);\n        tweets[id] = newTweet;\n        emit TweetUpdated(id, _message, _author);\n    }\n}",
  "sourcePath": "/home/rebel/Desktop/Epita/eth/gitshare/Block_chian/contracts/TweetFactory.sol",
  "compiler": {
    "name": "solc",
    "version": "0.8.4+commit.c7e474f2.Emscripten.clang"
  },
  "schemaVersion": "3.4.0",
  "updatedAt": "2021-05-28T09:12:10.286Z",
  "devdoc": {
    "kind": "dev",
    "methods": {},
    "version": 1
  },
  "userdoc": {
    "kind": "user",
    "methods": {},
    "version": 1
  }
}